:100000000C9434000C9446000C9446000C9446006A
:100010000C9446000C946A000C9446000C94460024
:100020000C9446000C9446000C9446000C94460038
:100030000C9446000C9446000C9446000C94460028
:100040000C9446000C9446000C9446000C94460018
:100050000C9446000C9446000C9446000C94460008
:100060000C9446000C94460011241FBECFEFD4E040
:10007000DEBFCDBF21E0A0E0B1E001C01D92A53000
:10008000B207E1F70E9498000C94D0000C94000095
:100090008AB180688AB98AB18F7B8AB98BB18F7730
:1000A0008BB98BB180648BB9E8E6F0E08081846025
:1000B0008083EDE6F0E08081806480837894109204
:1000C000040110920301109201011092000110929C
:1000D000020108951F920F920FB60F9211242F93D1
:1000E0003F938F939F9399B120910001309101012B
:1000F00081E096FD80E0882391F081E0232B09F0D8
:1001000080E0882361F081E0809302018091030107
:1001100090910401019690930401809303019F91B3
:100120008F913F912F910F900FBE0F901F901895B8
:100130000E94480080910201882379F0809100019B
:10014000909101010196909301018093000189EF44
:1001500090E00197F1F700C00000809100019091BC
:1001600001018C32914034F0109201011092000193
:1001700010920201809103019091040181709078A6
:10018000992324F401978E6F9F6F0196019721F4B4
:100190008BB180688BB9CECF8BB18F778BB9CACF3B
:0401A000F894FFCF01
:00000001FF
