:100000000C9434000C943E000C943E000C943E0082
:100010000C943E000C943E000C943E000C943E0068
:100020000C943E000C943E000C943E000C943E0058
:100030000C943E000C943E000C943E000C943E0048
:100040000C943E000C943E000C943E000C943E0038
:100050000C943E000C943E000C943E000C943E0028
:100060000C943E000C943E0011241FBECFEFD4E050
:10007000DEBFCDBF0E945D000C946A000C940000AE
:10008000A0E8B0E08C9183608C93E1E8F0E080819F
:100090008860808380818F7E80838C918F7B8C931E
:1000A0008C9180688C9380818260808380818A7F3C
:1000B000808384B1826084B908950E9440001092C8
:1000C0008900109288008FEF91E0909389008093CF
:0800D0008800F9CFF894FFCF7E
:00000001FF
