S018000050574D5F536F6674426C696E6B5F56322E7372656346
S11300000C9443000C944D000C944D000C944D0042
S11300100C944D000C944D000C944D000C944D0028
S11300200C944D000C944D000C944D000C944D0018
S11300300C944D000C944D000C944D000C944D0008
S11300400C944D000C944D000C944D000C944D00F8
S11300500C944D000C944D000C944D000C944D00E8
S11300600C944D000C944D0005A84CCDB2D44EB95F
S11300703836A9020C50B9918688083CA6AAAA2A47
S1130080BE000000803F11241FBECFEFD4E0DEBFCE
S1130090CDBF0E946C000C94E0020C940000A0E818
S11300A0B0E08C9183608C93E1E8F0E0808188601B
S11300B0808380818F7E80838C918F7B8C938C91C5
S11300C080688C9380818260808380818A7F808332
S11300D084B1826084B908950E944F00109289000F
S11300E0109288000F2EC12CD12CE12CFFE3FF2E9F
S11300F0F02D812C912C5401C1E020E030E0A901C5
S1130100C701B6010E94DE0118160CF0C0E0CC2332
S1130110E1F0C1E020E030E040E85FE3C701B60170
S11301200E94350188230CF0C0E0CC2371F020E05C
S113013030EC4FE754E4C701B6010E94E3010E948A
S11301403A0170938900609388002CE732EF40E312
S11301505BE3C501B4010E94C9004B015C012CE7BB
S113016039ED40E25FE30E94E3010E9450029B01EB
S1130170AC0160E070E080E89FE30E94C80020E0EA
S113018030E040E05FE30E94E3016B017C01B4CF07
S11301905058BB27AA270E94E0000C94A4010E9497
S11301A0960138F00E949D0120F039F49F3F19F424
S11301B026F40C9493010EF4E095E7FB0C948D0166
S11301C0E92F0E94B50158F3BA1762077307840731
S11301D0950720F079F4A6F50C94D7010EF4E09578
S11301E00B2EBA2FA02D0B01B90190010C01CA01ED
S11301F0A0011124FF27591B99F0593F50F4503E98
S113020068F11A16F040A22F232F342F4427585F89
S1130210F3CF469537952795A795F0405395C9F7A1
S11302207EF41F16BA0B620B730B840BBAF0915059
S1130230A1F0FF0FBB1F661F771F881FC2F70EC0F8
S1130240BA0F621F731F841F48F4879577956795CB
S1130250B795F7959E3F08F0B0CF9395880F08F0B7
S11302609927EE0F9795879508950E94690108F4E0
S113027081E008950E94BD0188F09F5798F0B92F3E
S11302809927B751B0F0E1F0660F771F881F991FC7
S11302901AF0BA95C9F714C0B13091F00E94D70191
S11302A0B1E008950C94D701672F782F8827B85FA1
S11302B039F0B93FCCF3869577956795B395D9F71F
S11302C03EF490958095709561957F4F8F4F9F4F29
S11302D00895990F0008550FAA0BE0E8FEEF1616D3
S11302E01706E807F907C0F012161306E407F50726
S11302F098F0621B730B840B950B39F40A2661F09A
S1130300232B242B252B21F408950A2609F4A1403C
S1130310A6958FEF811D811D089597F99F6780E849
S113032070E060E008959FEF80EC089500240A9443
S11303301616170618060906089500240A941216BC
S11303401306140605060895092E0394000C11F4EF
S1130350882352F0BB0F40F4BF2B11F460FF04C09C
S11303606F5F7F4F8F4F9F4F089557FD9058440FF5
S1130370551F59F05F3F71F04795880F97FB991F00
S113038061F09F3F79F087950895121613061406BD
S1130390551FF2CF4695F1DF08C01616170618064A
S11303A0991FF1CF86957105610508940895E89425
S11303B0BB2766277727CB0197F908950E94690127
S11303C008F48FEF08950E94F6010C94A4010E9492
S11303D0960138F00E949D0120F0952311F00C94B1
S11303E08D010C94930111240C94D8010E94B50141
S11303F070F3959FC1F3950F50E0551F629FF00174
S1130400729FBB27F00DB11D639FAA27F00DB11D8C
S1130410AA1F649F6627B00DA11D661F829F222715
S1130420B00DA11D621F739FB00DA11D621F839F9C
S1130430A00D611D221F749F3327A00D611D231F72
S1130440849F600D211D822F762F6A2F11249F57C0
S113045050409AF0F1F088234AF0EE0FFF1FBB1FC3
S1130460661F771F881F91505040A9F79E3F510582
S113047080F00C948D010C94D8015F3FE4F3983E16
S1130480D4F3869577956795B795F795E7959F5F2C
S1130490C1F7FE2B880F911D9695879597F90895BE
S11304A09F930E945A020F9007FCEE5F0C94830204
S11304B00C9493010E94BD01D8F3E894E0E0BB27BB
S11304C09F57F0F02AED3FE049EC06C0EE0FBB0F5A
S11304D0661F771F881F28F0B23A620773078407E4
S11304E028F0B25A620B730B840BE3959A9572F75A
S11304F0803830F49A95BB0F661F771F881FD2F798
S113050090480C949902EF93E0FF07C0A2EA2AED09
S11305103FE049EC5FEB0E94E0000E94A4010F90D1
S1130520039401FC9058E8E6F0E00C94A5029F3F88
S113053031F0915020F4879577956795B795880F9A
S1130540911D9695879597F908959F938F937F931F
S11305506F93FF93EF939B01AC010E94E301EF9132
S1130560FF910E94B9022F913F914F915F910C949A
S1130570E301DF93CF931F930F93FF92EF92DF92E8
S11305807B018C01689406C0DA2EEF010E94F6010B
S1130590FE01E894A5912591359145915591A6F3D5
S11305A0EF010E94E000FE019701A801DA9469F7C7
S11305B0DF90EF90FF900F911F91CF91DF910895FD
S10705C0F894FFCFD9
S9030000FC
