:100000000C9434000C9446000C9446000C9446006A
:100010000C9446000C9446000C9446000C94460048
:100020000C9446000C9446000C9446000C94460038
:100030000C9446000C9446000C9446000C94460028
:100040000C9446000C9446000C9446000C94460018
:100050000C9446000C9478000C9446000C944600D6
:100060000C9446000C94460011241FBECFEFD4E040
:10007000DEBFCDBF21E0A0E0B1E001C01D92A13004
:10008000B207E1F70E9487000C94A7020C940000CD
:10009000A0E8B0E08C9183608C93E1E8F0E080818F
:1000A0008860808380818F7E80838C918F7B8C930E
:1000B0008C9180688C9380818260808380818A7F2C
:1000C000808384B1826084B98AB18F7B8AB98BB115
:1000D00080648BB9EAE7F0E080818B6A8083ECE78B
:1000E000F0E0808183648083109200017894089509
:1000F0001F920F920FB60F9211248F9381E080937D
:1001000000018F910F900FBE0F901F9018950E94C5
:100110004800EAE7F0E0808180648083C12CD12C24
:100120007601809100018823F1F060917800709150
:10013000790080E090E00E94830120E030E040E818
:100140005AE30E943A0220E030E040EA50E40E9484
:100150003A0220E030E040EA50E40E94E2006B0105
:100160007C0110920001C1E020E030E0A901C7014C
:10017000B6010E94350218160CF0C0E0CC2389F2BB
:10018000C1E020E030E040E85FE3C701B6010E9433
:10019000DD0088230CF0C0E0CC2319F220E030EC25
:1001A0004FE754E4C701B6010E943A020E9454018D
:1001B0007093890060938800B4CF0E94C00108F456
:1001C00081E008950E94F6000C94FB010E94F40166
:1001D00058F00E94ED0140F029F45F3F29F00C94A3
:1001E000E40151110C942F020C94EA010E940C02BC
:1001F00068F39923B1F3552391F3951B550BBB2756
:10020000AA2762177307840738F09F5F5F4F220F9A
:10021000331F441FAA1FA9F335D00E2E3AF0E0E891
:1002200032D091505040E695001CCAF72BD0FE2FDB
:1002300029D0660F771F881FBB1F2617370748076F
:10024000AB07B0E809F0BB0B802DBF01FF27935827
:100250005F4F3AF09E3F510578F00C94E4010C9406
:100260002F025F3FE4F3983ED4F386957795679528
:10027000B795F7959F5FC9F7880F911D969587955C
:1002800097F90895E1E0660F771F881FBB1F62177B
:1002900073078407BA0720F0621B730B840BBA0B39
:1002A000EE1F88F7E09508950E94140288F09F578A
:1002B00098F0B92F9927B751B0F0E1F0660F771F8A
:1002C000881F991F1AF0BA95C9F714C0B13091F080
:1002D0000E942E02B1E008950C942E02672F782F11
:1002E0008827B85F39F0B93FCCF386957795679545
:1002F000B395D9F73EF490958095709561957F4FB1
:100300008F4F9F4F0895E89409C097FB3EF4909556
:100310008095709561957F4F8F4F9F4F9923A9F0DE
:10032000F92F96E9BB279395F6958795779567956D
:10033000B795F111F8CFFAF4BB0F11F460FF1BC0B1
:100340006F5F7F4F8F4F9F4F16C0882311F096E944
:1003500011C0772321F09EE8872F762F05C06623F2
:1003600071F096E8862F70E060E02AF09A95660FAB
:10037000771F881FDAF7880F9695879597F9089564
:10038000990F0008550FAA0BE0E8FEEF16161706A6
:10039000E807F907C0F012161306E407F50798F00E
:1003A000621B730B840B950B39F40A2661F0232B27
:1003B000242B252B21F408950A2609F4A140A695A3
:1003C0008FEF811D811D089597F99F6780E870E088
:1003D00060E008959FEF80EC089500240A941616BB
:1003E000170618060906089500240A941216130623
:1003F000140605060895092E0394000C11F48823B1
:1004000052F0BB0F40F4BF2B11F460FF04C06F5FCC
:100410007F4F8F4F9F4F089557FD9058440F551FA2
:1004200059F05F3F71F04795880F97FB991F61F076
:100430009F3F79F087950895121613061406551FED
:10044000F2CF4695F1DF08C0161617061806991F59
:10045000F1CF86957105610508940895E894BB274E
:1004600066277727CB0197F908950E94C00108F409
:100470008FEF08950E944D020C94FB010E94ED0144
:1004800038F00E94F40120F0952311F00C94E4015F
:100490000C94EA0111240C942F020E940C0270F3B8
:1004A000959FC1F3950F50E0551F629FF001729F19
:1004B000BB27F00DB11D639FAA27F00DB11DAA1F28
:1004C000649F6627B00DA11D661F829F2227B00D75
:1004D000A11D621F739FB00DA11D621F839FA00D00
:1004E000611D221F749F3327A00D611D231F849F50
:1004F000600D211D822F762F6A2F11249F575040A7
:100500009AF0F1F088234AF0EE0FFF1FBB1F661F21
:10051000771F881F91505040A9F79E3F510580F0EA
:100520000C94E4010C942F025F3FE4F3983ED4F363
:10053000869577956795B795F795E7959F5FC1F78E
:10054000FE2B880F911D9695879597F90895F8943D
:02055000FFCFDB
:00000001FF
