:100000000C9434000C943E000C943E000C943E0082
:100010000C943E000C943E000C943E000C943E0068
:100020000C943E000C943E000C943E000C943E0058
:100030000C943E000C943E000C943E000C943E0048
:100040000C943E000C943E000C943E000C943E0038
:100050000C943E000C943E000C943E000C943E0028
:100060000C943E000C943E0011241FBECFEFD4E050
:10007000DEBFCDBF0E94FD000C9492020C940000E4
:100080008AB180688AB98AB18F7B8AB908958F92C4
:100090009F92AF92BF92CF92DF92EF92FF9220E0B9
:1000A00030E040E251E40E9425026B017C0120E037
:1000B00030E040E251E40E942002882344F00F2EF9
:1000C000C12CD12CF0E2EF2EF1E4FF2EF02D8BB1FC
:1000D00080688BB920E030E04AE753E4C701B601FD
:1000E0000E9425024B015C0120E030E040E85FE324
:1000F0000E94770188231CF120E03FEF4FE757E48F
:10010000C501B4010E9420021816A4F420E030E0DA
:1001100040E251E4C701B6010E9425020E947C0121
:100120006115710589F089E190E00197F1F761505F
:100130007109F6CFC501B4010E947C0102C061E0E3
:1001400070E0CB010197F1F720E030E040E251E4AC
:10015000C701B6010E947701882309F445C08BB11D
:100160008F778BB9A701960160E070E080E291E49F
:100170000E940A014B015C0120E030E04AE753E4B1
:100180000E9425026B017C0120E030E040E85FE343
:100190000E94770188231CF120E03FEF4FE757E4EE
:1001A000C701B6010E9420021816A4F420E030E036
:1001B00040E251E4C501B4010E9425020E947C0185
:1001C0006115710589F089E190E00197F1F76150BF
:1001D0007109F6CFC701B6010E947C0102C061E03F
:1001E00070E0CB010197F1F7FF90EF90DF90CF9097
:1001F000BF90AF909F908F9008950E9440008BB168
:100200008F778BB989B160E070E080E09FE30E9456
:100210004700F8CF5058BB27AA270E9422010C9410
:10022000E6010E94D80138F00E94DF0120F039F485
:100230009F3F19F426F40C94D5010EF4E095E7FBEA
:100240000C94CF01E92F0E94F70158F3BA17620707
:1002500073078407950720F079F4A6F50C9419022A
:100260000EF4E0950B2EBA2FA02D0B01B9019001D1
:100270000C01CA01A0011124FF27591B99F0593F15
:1002800050F4503E68F11A16F040A22F232F342F5D
:100290004427585FF3CF469537952795A795F040AB
:1002A0005395C9F77EF41F16BA0B620B730B840BC0
:1002B000BAF09150A1F0FF0FBB1F661F771F881F78
:1002C000C2F70EC0BA0F621F731F841F48F48795D0
:1002D00077956795B795F7959E3F08F0B0CF9395C2
:1002E000880F08F09927EE0F9795879508950E943B
:1002F000AB0108F481E008950E94FF0188F09F5748
:1003000098F0B92F9927B751B0F0E1F0660F771F39
:10031000881F991F1AF0BA95C9F714C0B13091F02F
:100320000E941902B1E008950C941902672F782FEA
:100330008827B85F39F0B93FCCF3869577956795F4
:10034000B395D9F73EF490958095709561957F4F60
:100350008F4F9F4F0895990F0008550FAA0BE0E8A3
:10036000FEEF16161706E807F907C0F01216130677
:10037000E407F50798F0621B730B840B950B39F4B7
:100380000A2661F0232B242B252B21F408950A261D
:1003900009F4A140A6958FEF811D811D089597F95D
:1003A0009F6780E870E060E008959FEF80EC08951B
:1003B00000240A9416161706180609060895002444
:1003C0000A9412161306140605060895092E0394BE
:1003D000000C11F4882352F0BB0F40F4BF2B11F432
:1003E00060FF04C06F5F7F4F8F4F9F4F089557FD91
:1003F0009058440F551F59F05F3F71F04795880F93
:1004000097FB991F61F09F3F79F087950895121629
:1004100013061406551FF2CF4695F1DF08C01616D5
:1004200017061806991FF1CF869571056105089486
:100430000895E894BB2766277727CB0197F908959D
:100440000E94AB0108F48FEF08950E9438020C94CB
:10045000E6010E94D80138F00E94DF0120F09523C8
:1004600011F00C94CF010C94D50111240C941A02B4
:100470000E94F70170F3959FC1F3950F50E0551F4F
:10048000629FF001729FBB27F00DB11D639FAA27E9
:10049000F00DB11DAA1F649F6627B00DA11D661F38
:1004A000829F2227B00DA11D621F739FB00DA11D59
:1004B000621F839FA00D611D221F749F3327A00D13
:1004C000611D231F849F600D211D822F762F6A2FAF
:1004D00011249F5750409AF0F1F088234AF0EE0F14
:1004E000FF1FBB1F661F771F881F91505040A9F741
:1004F0009E3F510580F00C94CF010C941A025F3F8F
:10050000E4F3983ED4F3869577956795B795F7957C
:10051000E7959F5FC1F7FE2B880F911D96958795F4
:0805200097F90895F894FFCF4C
:00000001FF
