S011000050574D5F626C696E6B2E73726563B0
S11300000C9434000C943E000C943E000C943E007E
S11300100C943E000C943E000C943E000C943E0064
S11300200C943E000C943E000C943E000C943E0054
S11300300C943E000C943E000C943E000C943E0044
S11300400C943E000C943E000C943E000C943E0034
S11300500C943E000C943E000C943E000C943E0024
S11300600C943E000C943E0011241FBECFEFD4E04C
S1130070DEBFCDBF0E9422010C942A030C94000021
S11300808AB180688AB98AB18F7B8AB98BB18F773C
S11300908BB908958F929F92AF92BF92CF92DF92C5
S11300A0EF92FF920F931F93CF93DF934B015C0169
S11300B060E070E080E89FE30E94A20120E030E06D
S11300C040E151E40E94BD02F62EE72ED82EC92E3F
S11300D0A50194010E94BD02D62FC72F182F092F06
S11300E0262F372F482F592F6F2D7E2D8D2D9C2D88
S11300F00E949D01181624F0DF2DCE2D1D2D0C2DF0
S11301008BB180688BB920E030E04AE753E46D2F6F
S11301107C2F812F902F0E94BD024B015C0120E0B7
S113012030E040E85FE30E949D0188232CF120E049
S11301303FEF4FE757E4C501B4010E94B802181617
S1130140B4F420E030E040E251E46D2F7C2F812FA5
S1130150902F0E94BD020E9414026115710589F05E
S113016089E190E00197F1F761507109F6CFC5017B
S1130170B4010E94140202C061E070E0CB01019757
S1130180F1F72F2D3E2D4D2D5C2D6D2F7C2F812FC2
S1130190902F0E949D01882309F447C08BB18F776B
S11301A08BB92D2F3C2F412F502F6F2D7E2D8D2D50
S11301B09C2D0E9430014B015C0120E030E04AE7B5
S11301C053E40E94BD026B017C0120E030E040E872
S11301D05FE30E949D0188231CF120E03FEF4FE77D
S11301E057E4C701B6010E94B8021816A4F420E02F
S11301F030E040E251E4C501B4010E94BD020E9416
S113020014026115710589F089E190E00197F1F715
S113021061507109F6CFC701B6010E94140202C0F1
S113022061E070E0CB010197F1F7DF91CF911F916D
S11302300F91FF90EF90DF90CF90BF90AF909F9081
S11302408F9008950E94400089B120E030E040EF93
S113025052E460E070E080E09FE30E944A00F4CF43
S11302605058BB27AA270E9448010C947E020E9482
S1130270700238F00E94770220F039F49F3F19F49D
S113028026F40C946D020EF4E095E7FB0C946702DF
S1130290E92F0E948F0258F3BA1762077307840785
S11302A0950720F079F4A6F50C94B1020EF4E095CC
S11302B00B2EBA2FA02D0B01B90190010C01CA011C
S11302C0A0011124FF27591B99F0593F50F4503EC7
S11302D068F11A16F040A22F232F342F4427585FB9
S11302E0F3CF469537952795A795F0405395C9F7D1
S11302F07EF41F16BA0B620B730B840BBAF0915089
S1130300A1F0FF0FBB1F661F771F881FC2F70EC027
S1130310BA0F621F731F841F48F4879577956795FA
S1130320B795F7959E3F08F0B0CF9395880F08F0E6
S11303309927EE0F9795879508950E94430208F434
S113034081E008950E94B6010C947E020E94770217
S113035058F00E94700240F029F45F3F29F00C9499
S1130360670251110C94B2020C946D020E948F0228
S113037068F39923B1F3552391F3951B550BBB27D0
S1130380AA2762177307840738F09F5F5F4F220F15
S1130390331F441FAA1FA9F335D00E2E3AF0E0E80C
S11303A032D091505040E695001CCAF72BD0FE2F56
S11303B029D0660F771F881FBB1F261737074807EA
S11303C0AB07B0E809F0BB0B802DBF01FF279358A2
S11303D05F4F3AF09E3F510578F00C9467020C94FD
S11303E0B2025F3FE4F3983ED4F386957795679520
S11303F0B795F7959F5FC9F7880F911D96958795D7
S113040097F90895E1E0660F771F881FBB1F6217F5
S113041073078407BA0720F0621B730B840BBA0BB3
S1130420EE1F88F7E09508950E94970288F09F5781
S113043098F0B92F9927B751B0F0E1F0660F771F04
S1130440881F991F1AF0BA95C9F714C0B13091F0FA
S11304500E94B102B1E008950C94B102672F782F85
S11304608827B85F39F0B93FCCF3869577956795BF
S1130470B395D9F73EF490958095709561957F4F2B
S11304808F4F9F4F0895990F0008550FAA0BE0E86E
S1130490FEEF16161706E807F907C0F01216130642
S11304A0E407F50798F0621B730B840B950B39F482
S11304B00A2661F0232B242B252B21F408950A26E8
S11304C009F4A140A6958FEF811D811D089597F928
S11304D09F6780E870E060E008959FEF80EC0895E6
S11304E000240A941616170618060906089500240F
S11304F00A9412161306140605060895092E039489
S1130500000C11F4882352F0BB0F40F4BF2B11F4FC
S113051060FF04C06F5F7F4F8F4F9F4F089557FD5B
S11305209058440F551F59F05F3F71F04795880F5D
S113053097FB991F61F09F3F79F0879508951216F4
S113054013061406551FF2CF4695F1DF08C01616A0
S113055017061806991FF1CF869571056105089451
S11305600895E894BB2766277727CB0197F9089568
S11305700E94430208F48FEF08950E94D0020C9465
S11305807E020E94700238F00E94770220F09523C8
S113059011F00C9467020C946D0211240C94B202B5
S11305A00E948F0270F3959FC1F3950F50E0551F81
S11305B0629FF001729FBB27F00DB11D639FAA27B4
S11305C0F00DB11DAA1F649F6627B00DA11D661F03
S11305D0829F2227B00DA11D621F739FB00DA11D24
S11305E0621F839FA00D611D221F749F3327A00DDE
S11305F0611D231F849F600D211D822F762F6A2F7A
S113060011249F5750409AF0F1F088234AF0EE0FDE
S1130610FF1FBB1F661F771F881F91505040A9F70B
S11306209E3F510580F00C9467020C94B2025F3F28
S1130630E4F3983ED4F3869577956795B795F79547
S1130640E7959F5FC1F7FE2B880F911D96958795BF
S10B065097F90895F894FFCF17
S9030000FC
