:100000000C9443000C944D000C944D000C944D0046
:100010000C944D000C944D000C944D000C944D002C
:100020000C944D000C944D000C944D000C944D001C
:100030000C944D000C944D000C944D000C944D000C
:100040000C944D000C944D000C944D000C944D00FC
:100050000C944D000C944D000C944D000C944D00EC
:100060000C944D000C944D0005A84CCDB2D44EB963
:100070003836A9020C50B9918688083CA6AAAA2A4B
:10008000BE000000803F11241FBECFEFD4E0DEBFD2
:10009000CDBF0E9411010C9455030C9400008AB14D
:1000A00080688AB98BB18F778BB908958F929F92B0
:1000B000AF92BF92CF92DF92EF92FF920F931F9376
:1000C000CF93DF93F22EE32ED42EC52E0E9458023A
:1000D000162FD72FC82F092F262F372F482F592FEC
:1000E0006F2D7E2D8D2D9C2D0E94AA01181624F0B7
:1000F0001F2DDE2DCD2D0C2D8BB180688BB920E00E
:1001000030E04AE753E4612F7D2F8C2F902F0E941F
:1001100058024B015C0120E030E040E85FE30E94C0
:10012000AA0188232CF120E03FEF4FE757E4C501F7
:10013000B4010E9453021816B4F420E030E040E20B
:1001400051E4612F7D2F8C2F902F0E9458020E9426
:10015000AF016115710589F089E190E00197F1F730
:1001600061507109F6CFC501B4010E94AF0102C010
:1001700061E070E0CB010197F1F78BB18F778BB91C
:10018000212F3D2F4C2F502F6F2D7E2D8D2D9C2DEF
:100190000E943D014B015C0120E030E04AE753E45E
:1001A0000E9458026B017C0120E030E040E85FE3F0
:1001B0000E94AA0188231CF120E03FEF4FE757E49B
:1001C000C701B6010E9453021816A4F420E030E0E3
:1001D00040E251E4C501B4010E9458020E94AF01FF
:1001E0006115710589F089E190E00197F1F761509F
:1001F0007109F6CFC701B6010E94AF0102C061E0EC
:1002000070E0CB010197F1F7DF91CF911F910F9132
:10021000FF90EF90DF90CF90BF90AF909F908F9026
:1002200008950E944F00C12CD12C76012AE037EDB1
:1002300043E25CE3C701B6010E943E016B017C0111
:100240002BED3FE049E450E40E9458020E94C502B1
:100250009B01AC0160E070E080E89FE30E943D01FB
:1002600020E030E040E05FE30E9458022CEB3CE9E4
:1002700042E050E40E945600D9CF5058BB27AA272D
:100280000E9455010C9419020E940B0238F00E9442
:10029000120220F039F49F3F19F426F40C9408025E
:1002A0000EF4E095E7FB0C940202E92F0E942A026B
:1002B00058F3BA17620773078407950720F079F49B
:1002C000A6F50C944C020EF4E0950B2EBA2FA02D3F
:1002D0000B01B90190010C01CA01A0011124FF27F3
:1002E000591B99F0593F50F4503E68F11A16F040EE
:1002F000A22F232F342F4427585FF3CF46953795ED
:100300002795A795F0405395C9F77EF41F16BA0BB1
:10031000620B730B840BBAF09150A1F0FF0FBB1F5F
:10032000661F771F881FC2F70EC0BA0F621F731FA8
:10033000841F48F4879577956795B795F7959E3F05
:1003400008F0B0CF9395880F08F09927EE0F979596
:10035000879508950E94DE0108F481E008950E94C7
:10036000320288F09F5798F0B92F9927B751B0F013
:10037000E1F0660F771F881F991F1AF0BA95C9F729
:1003800014C0B13091F00E944C02B1E008950C9479
:100390004C02672F782F8827B85F39F0B93FCCF32C
:1003A000869577956795B395D9F73EF490958095A6
:1003B000709561957F4F8F4F9F4F0895990F00085B
:1003C000550FAA0BE0E8FEEF16161706E807F90727
:1003D000C0F012161306E407F50798F0621B730BC2
:1003E000840B950B39F40A2661F0232B242B252B43
:1003F00021F408950A2609F4A140A6958FEF811DE6
:10040000811D089597F99F6780E870E060E0089586
:100410009FEF80EC089500240A941616170618061C
:100420000906089500240A941216130614060506F8
:100430000895092E0394000C11F4882352F0BB0F89
:1004400040F4BF2B11F460FF04C06F5F7F4F8F4FEC
:100450009F4F089557FD9058440F551F59F05F3F27
:1004600071F04795880F97FB991F61F09F3F79F0D6
:1004700087950895121613061406551FF2CF469558
:10048000F1DF08C0161617061806991FF1CF8695DA
:100490007105610508940895E894BB2766277727BE
:1004A000CB0197F908950E94DE0108F48FEF0895BB
:1004B0000E946B020C9419020E940B0238F00E94F9
:1004C000120220F0952311F00C9402020C94080201
:1004D00011240C944D020E942A0270F3959FC1F3DF
:1004E000950F50E0551F629FF001729FBB27F00DE2
:1004F000B11D639FAA27F00DB11DAA1F649F662737
:10050000B00DA11D661F829F2227B00DA11D621F85
:10051000739FB00DA11D621F839FA00D611D221F3F
:10052000749F3327A00D611D231F849F600D211D23
:10053000822F762F6A2F11249F5750409AF0F1F0A6
:1005400088234AF0EE0FFF1FBB1F661F771F881F0F
:1005500091505040A9F79E3F510580F00C94020243
:100560000C944D025F3FE4F3983ED4F38695779563
:100570006795B795F795E7959F5FC1F7FE2B880FB5
:10058000911D9695879597F908959F930E94CF02A4
:100590000F9007FCEE5F0C94F8020C9408020E9486
:1005A0003202D8F3E894E0E0BB279F57F0F02AED41
:1005B0003FE049EC06C0EE0FBB0F661F771F881F98
:1005C00028F0B23A62077307840728F0B25A620B28
:1005D000730B840BE3959A9572F7803830F49A95F3
:1005E000BB0F661F771F881FD2F790480C940E032D
:1005F000EF93E0FF07C0A2EA2AED3FE049EC5FEB92
:100600000E9455010E9419020F90039401FC90581A
:10061000E8E6F0E00C941A039F3F31F0915020F48B
:10062000879577956795B795880F911D96958795CE
:1006300097F908959F938F937F936F93FF93EF9311
:100640009B01AC010E945802EF91FF910E942E0382
:100650002F913F914F915F910C945802DF93CF936C
:100660001F930F93FF92EF92DF927B018C016894AE
:1006700006C0DA2EEF010E946B02FE01E894A591FC
:100680002591359145915591A6F3EF010E945501B1
:10069000FE019701A801DA9469F7DF90EF90FF90CF
:0E06A0000F911F91CF91DF910895F894FFCF35
:00000001FF
