:100000000C9434000C943E000C943E000C943E0082
:100010000C943E000C943E000C943E000C943E0068
:100020000C943E000C943E000C943E000C943E0058
:100030000C943E000C943E000C943E000C943E0048
:100040000C943E000C943E000C943E000C943E0038
:100050000C943E000C943E000C943E000C943E0028
:100060000C943E000C943E0011241FBECFEFD4E050
:10007000DEBFCDBF0E945A000C9463000C940000B8
:1000800084B1886084B984B18B7F84B9089585B1C7
:10009000886085B987EA91E60197F1F700C0000012
:1000A00085B1877F85B987EA91E60197F1F700C0AE
:1000B000000008950E94400085B1877F85B983B113
:0A00C0000E944700FCCFF894FFCF28
:00000001FF
