S012000068656C6C6F576F726C642E73726563F6
S11300000C9434000C943E000C943E000C943E007E
S11300100C943E000C943E000C943E000C943E0064
S11300200C943E000C943E000C943E000C943E0054
S11300300C943E000C943E000C943E000C943E0044
S11300400C943E000C943E000C943E000C943E0034
S11300500C943E000C943E000C943E000C943E0024
S11300600C943E000C943E0011241FBECFEFD4E04C
S1130070DEBFCDBF0E945A000C9463000C940000B4
S11300808AB180688AB98AB18F7B8AB908958BB1A5
S113009080688BB987EA91E60197F1F700C0000008
S11300A08BB18F778BB987EA91E60197F1F700C09E
S11300B0000008950E9440008BB18F778BB989B1FD
S10D00C00E944700FCCFF894FFCF24
S9030000FC
