S01500004F7070676176653342617369632E7372656328
S11300000C9434000C943E000C943E000C943E007E
S11300100C943E000C943E000C943E000C943E0064
S11300200C943E000C943E000C943E000C943E0054
S11300300C943E000C943E000C943E000C943E0044
S11300400C943E000C943E000C943E000C943E0034
S11300500C943E000C943E000C943E000C943E0024
S11300600C943E000C943E0011241FBECFEFD4E04C
S1130070DEBFCDBF0E9447000C944F000C940000DB
S11300808AB180688AB98BB18F778BB908950E9441
S113009040008BB180688BB980E090E00895F894BB
S10500A0FFCF8C
S9030000FC
